:100000000C942A000C9447000C9447000C94470071
:100010000C9447000C9447000C9447000C94470044
:100020000C9447000C9447000C9447000C94470034
:100030000C9447000C9447000C9447000C94470024
:100040000C9447000C9447000C9447000C94470014
:100050000C94470011241FBECFE5D8E0DEBFCDBF12
:1000600010E0A0E6B0E0EEEBF7E002C005900D92E4
:10007000A83BB107D9F720E0A8EBB0E001C01D9282
:10008000AA3BB207E1F70E94AC030C94DD030C9489
:10009000000081E197E20197F1F708954423B9F157
:1000A000413009F06BC0813089F028F08230C9F00E
:1000B000833011F108952AB381E090E002C0880FE7
:1000C000991F6A95E2F7822B8ABB089527B381E0D6
:1000D00090E002C0880F991F6A95E2F7822B87BBD8
:1000E000089524B381E090E002C0880F991F6A95BB
:1000F000E2F7822B84BB089521B381E090E002C037
:10010000880F991F6A95E2F7822B81BB0895813091
:1001100091F028F08230D9F0833029F108952AB384
:1001200081E090E002C0880F991F6A95E2F7809500
:1001300082238ABB089527B381E090E002C0880F34
:10014000991F6A95E2F78095822387BB089524B3AF
:1001500081E090E002C0880F991F6A95E2F78095D0
:10016000822384BB089521B381E090E002C0880F10
:10017000991F6A95E2F78095822381BB08954423F5
:10018000B9F1413009F06BC0813089F028F082303C
:10019000C9F0833011F108952BB381E090E002C0E3
:1001A000880F991F6A95E2F7822B8BBB089528B3BD
:1001B00081E090E002C0880F991F6A95E2F7822BD8
:1001C00088BB089525B381E090E002C0880F991F95
:1001D0006A95E2F7822B85BB089522B381E090E017
:1001E00002C0880F991F6A95E2F7822B82BB08959F
:1001F000813091F028F08230D9F0833029F10895D0
:100200002BB381E090E002C0880F991F6A95E2F756
:10021000809582238BBB089528B381E090E002C0D3
:10022000880F991F6A95E2F78095822388BB08950D
:1002300025B381E090E002C0880F991F6A95E2F72C
:100240008095822385BB089522B381E090E002C0AF
:10025000880F991F6A95E2F78095822382BB0895E3
:10026000813089F028F08230C9F0833011F108958F
:1002700089B390E002C0959587956A95E2F7817001
:10028000FA018083089586B390E002C09595879522
:100290006A95E2F78170FA018083089583B390E054
:1002A00002C0959587956A95E2F78170FA0180837F
:1002B000089580B390E002C0959587956A95E2F71E
:1002C0008170FA0180830895813089F028F08230AE
:1002D000C9F0833011F108952BB381E090E002C0A2
:1002E000880F991F6A95E2F7822B8BBB089528B37C
:1002F00081E090E002C0880F991F6A95E2F7822B97
:1003000088BB089525B381E090E002C0880F991F53
:100310006A95E2F7822B85BB089522B381E090E0D5
:1003200002C0880F991F6A95E2F7822B82BB08955D
:1003300041E060E083E00E944E0041E061E083E044
:100340000E944E0041E062E083E00E944E0041E0E6
:1003500063E083E00E944E0040E064E083E00E949E
:100360004E0040E065E083E00E944E0040E066E021
:1003700083E00E944E0040E067E083E00E944E0070
:1003800041E060E083E00E94BF0041E061E083E083
:100390000E94BF0041E062E083E00E94BF0041E0B4
:1003A00063E083E00E94BF0064E083E00E94640198
:1003B00065E083E00E94640166E083E00E946401DE
:1003C00067E083E00E9464010895BF92CF92DF92BC
:1003D000EF92FF920F931F93CF93DF931F92CDB7AE
:1003E000DEB781E089830F2EF0E6CF2EF0E0DF2E1E
:1003F000F02DB12C00E040E0602F83E00E94BF00B0
:10040000760114E0AE014F5F5F4F612F83E00E94E1
:1004100030018981811115C0F701B080AE014F5FB5
:100420005F4F612F83E00E943001FFEF26E781E0FC
:10043000F15020408040E1F700C00000898188230E
:1004400069F31F5F94E0E90EF11C1830D9F641E022
:10045000602F83E00E94BF000F5FEFEFCE1ADE0A2D
:10046000043049F68B2D0F90DF91CF911F910F91A2
:10047000FF90EF90DF90CF90BF900895CF93C82F5B
:1004800040E061E081E00E94BF0040E062E081E086
:100490000E94BF0040E063E081E00E94BF008BB398
:1004A0009C2F907F8F70892B8BBB41E063E081E0B4
:1004B0000E94BF008FE99FE00197F1F700C00000A4
:1004C00040E063E081E00E94BF002BB330E1C39FB6
:1004D000C0011124922F9F70892B8BBB41E063E0F8
:1004E00081E00E94BF008FE39CE90197F1F700C013
:1004F000000040E063E081E00E94BF008FE19EE4E5
:100500000197F1F700C00000CF91089541E061E04C
:1005100081E00E944E0041E062E081E00E944E00D6
:1005200041E063E081E00E944E0041E064E080E051
:100530000E944E0041E065E080E00E944E0041E0F4
:1005400066E080E00E944E0041E067E080E00E94AB
:100550004E002FEF81EE94E0215080409040E1F773
:1005600000C0000083E30E943E0282E30E943E023C
:1005700088E20E943E028CE00E943E0281E00E94DE
:100580003E0286E00E943E0282E00E943E0280E837
:100590000E943E020895CF93C82F41E061E081E0C0
:1005A0000E94BF0040E062E081E00E94BF0040E0A6
:1005B00063E081E00E94BF008BB39C2F907F8F701F
:1005C000892B8BBB41E063E081E00E94BF008FE993
:1005D0009FE00197F1F700C0000040E063E081E098
:1005E0000E94BF002BB330E1C39FC0011124922FA2
:1005F0009F70892B8BBB41E063E081E00E94BF00CC
:100600008FE39CE90197F1F700C0000040E063E050
:1006100081E00E94BF008FE19EE40197F1F700C0E6
:100620000000CF9108950F931F93CF93FC01808119
:10063000882359F08F01C0E00E94CB02CF5FF80100
:10064000EC0FF11D80818111F7CFCF911F910F9198
:100650000895CF93DF9300D0CDB7DEB790E89983AC
:1006600090EC9A83FE01E80FF11D8181860F0E94B4
:100670003E020F900F90DF91CF91089581E00E948C
:100680003E0208958091B8008133F1F780917000A7
:10069000882361F1813049F40E943E0380E80E9482
:1006A0003E0281E790E00E941303809170008F5F0B
:1006B000809370000E94E5018093B9000E94490078
:1006C0008091B90090ED980F9A3040F40E94CB02CF
:1006D00080917000853011F4109270008091B90003
:1006E0000E94D803809170008111D4CF0895809129
:1006F000B800823339F480E80E943E028BE790E034
:100700000E94130308958091B800833381F480E838
:100710000E943E0289E890E00E9413032FEF83EDD0
:1007200090E3215080409040E1F700C00000089520
:100730008091B800843379F480E80E943E0288E911
:1007400090E00E94130360E081E00E94290388EAA0
:1007500090E00E94130308950E94C0030E94860245
:100760000E94980182E30E94D8038093B8000E94FF
:1007700042030E9477030E9483030E949803F2CFF2
:1007800041E066E081E00E944E0040E065E081E0EB
:100790000E944E0040E067E081E00E944E0040E091
:1007A00064E081E00E944E008DB184648DB90895AB
:0E07B0008FB9779BFECF8FB10895F894FFCFDD
:1007BE003738392F3435362A3132332D63303D2BCD
:1007CE000170617373776F72643A0074727565208D
:1007DE0070617373776F72640077726F6E672070DB
:1007EE00617373776F72640077726F6E67207061DA
:1007FE007373776F72642000332074696D65732094
:08080E0072657365742000009F
:00000001FF
