S01700004D6963726F436F6E74726F6C6572322E7372656329
S11300000C942A000C9447000C9447000C9447006D
S11300100C9447000C9447000C9447000C94470040
S11300200C9447000C9447000C9447000C94470030
S11300300C9447000C9447000C9447000C94470020
S11300400C9447000C9447000C9447000C94470010
S11300500C94470011241FBECFE5D8E0DEBFCDBF0E
S113006010E0A0E6B0E0EEE1F6E002C005900D92EB
S1130070A036B107D9F720E0A0E6B0E001C01D9298
S1130080A336B207E1F70E946E020C940D030C94A0
S113009000004423B9F1413009F06BC0813089F08C
S11300A028F08230C9F0833011F108952AB381E039
S11300B090E002C0880F991F6A95E2F7822B8ABBF1
S11300C0089527B381E090E002C0880F991F6A95D4
S11300D0E2F7822B87BB089524B381E090E002C04D
S11300E0880F991F6A95E2F7822B84BB089521B388
S11300F081E090E002C0880F991F6A95E2F7822B95
S113010081BB0895813091F028F08230D9F083309A
S113011029F108952AB381E090E002C0880F991F65
S11301206A95E2F7809582238ABB089527B381E01C
S113013090E002C0880F991F6A95E2F780958223A8
S113014087BB089524B381E090E002C0880F991F13
S11301506A95E2F78095822384BB089521B381E0F8
S113016090E002C0880F991F6A95E2F78095822378
S113017081BB08954423B9F1413009F06BC081304B
S113018089F028F08230C9F0833011F108952BB33F
S113019081E090E002C0880F991F6A95E2F7822BF4
S11301A08BBB089528B381E090E002C0880F991FAB
S11301B06A95E2F7822B88BB089525B381E090E02D
S11301C002C0880F991F6A95E2F7822B85BB0895B8
S11301D022B381E090E002C0880F991F6A95E2F78C
S11301E0822B82BB0895813091F028F08230D9F0BF
S11301F0833029F108952BB381E090E002C0880F89
S1130200991F6A95E2F7809582238BBB089528B3E2
S113021081E090E002C0880F991F6A95E2F780950B
S1130220822388BB089525B381E090E002C0880F43
S1130230991F6A95E2F78095822385BB089522B3BE
S113024081E090E002C0880F991F6A95E2F78095DB
S1130250822382BB0895CF93DF93D82FC62F0E94A9
S1130260560180E50E946A018D2F0E9483018C2F24
S11302700E9483010E949901DF91CF910895CF9349
S1130280C82F0E94560180E50E946A018C2F0E94AB
S113029083010E94600180E50E9476010E948E0124
S11302A0C82F0E9499018C2FCF91089584EA86BFAC
S11302B006B607FEFDCF81B1887F8830E1F7089547
S11302C084EA86BF06B607FEFDCF81B1887F803100
S11302D0E1F70895880F83B984E886BF06B607FE60
S11302E0FDCF81B1887F8831E1F70895880F83B904
S11302F0189A84E886BF06B607FEFDCF81B1887FD1
S11303008034E1F7089583B984E886BF06B607FE12
S1130310FDCF81B1887F8832E1F7089584E886BFF4
S113032006B607FEFDCF81B1887F8835E1F783B13A
S1130330089584E986BF0895CF93C82F40E061E013
S113034081E00E94BA0040E062E081E00E94BA00CD
S113035040E063E081E00E94BA008BB39C2F907F61
S11303608F70892B8BBB41E063E081E00E94BA006F
S11303708FE99FE00197F1F700C0000040E063E0DF
S113038081E00E94BA002BB330E1C39FC001112465
S1130390922F9F70892B8BBB41E063E081E00E9428
S11303A0BA008FE99FE00197F1F700C0000040E038
S11303B063E081E00E94BA008FE19EE40197F1F7C7
S11303C000C00000CF91089541E061E081E00E9407
S11303D0490041E062E081E00E94490041E063E0BD
S11303E081E00E94490041E064E080E00E9449000D
S11303F041E065E080E00E94490041E066E080E081
S11304000E94490041E067E080E00E9449002FEF2C
S113041081EE94E0215080409040E1F700C000005C
S113042083E30E949C0182E30E949C0188E20E9473
S11304309C018CE00E949C0181E00E949C0186E06A
S11304400E949C0182E00E949C010895CF93C82FD2
S113045041E061E081E00E94BA0040E062E081E0B6
S11304600E94BA0040E063E081E00E94BA008BB3CE
S11304709C2F907F8F70892B8BBB41E063E081E0E0
S11304800E94BA008FE99FE00197F1F700C00000D5
S113049040E063E081E00E94BA002BB330E1C39FE7
S11304A0C0011124922F9F70892B8BBB41E063E024
S11304B081E00E94BA008FE39CE90197F1F700C044
S11304C0000040E063E081E00E94BA008FE19EE416
S11304D00197F1F700C00000CF9108950E94D00267
S11304E00E94E4010E94F90281E30E9408038093C0
S11304F0600081E30E9408030E94260281E30E94B7
S11305000803809360000E9426026091600080913D
S11305106100909162000E942B018FE39CE9019796
S1130520F1F700C0000080916100909162000E9488
S11305303F018FE39CE90197F1F700C000006FEFE2
S113054088E090E00E942B018FE39CE90197F1F78A
S113055000C0000088E090E00E943F018FE39CE926
S11305600197F1F700C00000809161009091620052
S113057003972CF481E30E94080380936000809128
S113058061009091620001969093620080936100F3
S1130590049709F0AECF1092620010926100A9CFC7
S11305A040E066E081E00E94490041E065E081E0CE
S11305B00E94490041E067E081E00E94490041E077
S11305C064E081E00E9449006C9A6A9A8DB183606C
S11305D08DB96E9A41E064E081E00E94BA002FEF89
S11305E086E791E0215080409040E1F700C0000090
S11305F0089540E064E081E00E94BA002FEF86E7AE
S113060091E0215080409040E1F700C0000008953F
S11106108FB9779BFECF8FB10895F894FFCF7A
S9030000FC
